{"contracts/FastestFingerPot.sol":{"FastestFingerPot":{"abi":[{"inputs":[],"name":"ReentrancyGuardReentrantCall","type":"error"},{"anonymous":false,"inputs":[{"indexed":true,"internalType":"address","name":"player","type":"address"},{"indexed":false,"internalType":"uint256","name":"totalClicks","type":"uint256"}],"name":"ClickRecorded","type":"event"},{"anonymous":false,"inputs":[{"indexed":true,"internalType":"address","name":"player","type":"address"},{"indexed":false,"internalType":"uint256","name":"stake","type":"uint256"}],"name":"PlayerJoined","type":"event"},{"anonymous":false,"inputs":[{"indexed":true,"internalType":"address","name":"winner","type":"address"},{"indexed":false,"internalType":"uint256","name":"winningScore","type":"uint256"},{"indexed":false,"internalType":"uint256","name":"payout","type":"uint256"}],"name":"RoundEnded","type":"event"},{"anonymous":false,"inputs":[{"indexed":false,"internalType":"uint256","name":"startTime","type":"uint256"}],"name":"RoundStarted","type":"event"},{"inputs":[],"name":"ROUND_DURATION","outputs":[{"internalType":"uint256","name":"","type":"uint256"}],"stateMutability":"view","type":"function"},{"inputs":[],"name":"click","outputs":[],"stateMutability":"nonpayable","type":"function"},{"inputs":[],"name":"currentRound","outputs":[{"internalType":"uint256","name":"startTime","type":"uint256"},{"internalType":"uint256","name":"totalPot","type":"uint256"},{"internalType":"bool","name":"active","type":"bool"}],"stateMutability":"view","type":"function"},{"inputs":[],"name":"endRound","outputs":[],"stateMutability":"nonpayable","type":"function"},{"inputs":[],"name":"getAllPlayers","outputs":[{"internalType":"address[]","name":"","type":"address[]"}],"stateMutability":"view","type":"function"},{"inputs":[],"name":"getCurrentRoundInfo","outputs":[{"internalType":"bool","name":"active","type":"bool"},{"internalType":"uint256","name":"startTime","type":"uint256"},{"internalType":"uint256","name":"totalPot","type":"uint256"},{"internalType":"uint256","name":"playerCount","type":"uint256"},{"internalType":"uint256","name":"timeRemaining","type":"uint256"}],"stateMutability":"view","type":"function"},{"inputs":[],"name":"getLeaderboard","outputs":[{"internalType":"address[]","name":"addresses","type":"address[]"},{"internalType":"uint256[]","name":"stakes","type":"uint256[]"},{"internalType":"uint256[]","name":"clicks","type":"uint256[]"},{"internalType":"uint256[]","name":"scores","type":"uint256[]"}],"stateMutability":"view","type":"function"},{"inputs":[{"internalType":"address","name":"player","type":"address"}],"name":"getPlayerInfo","outputs":[{"internalType":"bool","name":"hasEntered","type":"bool"},{"internalType":"uint256","name":"stake","type":"uint256"},{"internalType":"uint256","name":"clicks","type":"uint256"},{"internalType":"uint256","name":"score","type":"uint256"}],"stateMutability":"view","type":"function"},{"inputs":[],"name":"joinRound","outputs":[],"stateMutability":"payable","type":"function"},{"inputs":[],"name":"lastWinner","outputs":[{"internalType":"address","name":"","type":"address"}],"stateMutability":"view","type":"function"},{"inputs":[],"name":"lastWinningScore","outputs":[{"internalType":"uint256","name":"","type":"uint256"}],"stateMutability":"view","type":"function"}],"evm":{"bytecode":{"linkReferences":{},"object":"608060405234801561001057600080fd5b506001600055610f0d806100256000396000f3fe60806040526004361061009c5760003560e01c8063749aa2d911610064578063749aa2d9146101855780637d55923d1461019c5780638a19c8bc146101b1578063a21d8029146101f0578063efa1c482146101f8578063fe1881841461021a57600080fd5b806305491b7b146100a157806359328401146100ca5780636641ea081461010c5780636d763a6e14610121578063747dff4214610146575b600080fd5b3480156100ad57600080fd5b506100b760075481565b6040519081526020015b60405180910390f35b3480156100d657600080fd5b506100ea6100e5366004610d2a565b610252565b60408051941515855260208501939093529183015260608201526080016100c1565b34801561011857600080fd5b506100b7600f81565b34801561012d57600080fd5b506101366102af565b6040516100c19493929190610dce565b34801561015257600080fd5b5061015b61050d565b6040805195151586526020860194909452928401919091526060830152608082015260a0016100c1565b34801561019157600080fd5b5061019a61056d565b005b3480156101a857600080fd5b5061019a610837565b3480156101bd57600080fd5b506001546002546003546101d392919060ff1683565b6040805193845260208401929092521515908201526060016100c1565b61019a610991565b34801561020457600080fd5b5061020d610bcb565b6040516100c19190610e26565b34801561022657600080fd5b5060065461023a906001600160a01b031681565b6040516001600160a01b0390911681526020016100c1565b6001600160a01b038116600090815260056020908152604080832081516060810183528154808252600183015494820185905260029092015460ff16151592810183905291939092916102a58484610e4f565b9150509193509193565b6004546060908190819081908067ffffffffffffffff8111156102d4576102d4610e6c565b6040519080825280602002602001820160405280156102fd578160200160208202803683370190505b5094508067ffffffffffffffff81111561031957610319610e6c565b604051908082528060200260200182016040528015610342578160200160208202803683370190505b5093508067ffffffffffffffff81111561035e5761035e610e6c565b604051908082528060200260200182016040528015610387578160200160208202803683370190505b5092508067ffffffffffffffff8111156103a3576103a3610e6c565b6040519080825280602002602001820160405280156103cc578160200160208202803683370190505b50915060005b81811015610505576000600160030182815481106103f2576103f2610e82565b60009182526020808320909101546001600160a01b0316808352600582526040928390208351606081018552815481526001820154938101939093526002015460ff16151592820192909252885191925090829089908590811061045857610458610e82565b60200260200101906001600160a01b031690816001600160a01b031681525050806000015187848151811061048f5761048f610e82565b60200260200101818152505080602001518684815181106104b2576104b2610e82565b602002602001018181525050806000015181602001516104d29190610e4f565b8584815181106104e4576104e4610e82565b602002602001018181525050505080806104fd90610e98565b9150506103d2565b505090919293565b60035460015460025460045460ff90931692600084801561053b575060015461053890600f90610eb1565b42105b1561056257600154429061055190600f90610eb1565b61055b9190610ec4565b9050610566565b5060005b9091929394565b60035460ff166105b65760405162461bcd60e51b815260206004820152600f60248201526e139bc81c9bdd5b99081d1bc8195b99608a1b60448201526064015b60405180910390fd5b6001546105c590600f90610eb1565b4210156106095760405162461bcd60e51b8152602060048201526012602482015271526f756e64207374696c6c2061637469766560701b60448201526064016105ad565b610611610c30565b6004546106565760405162461bcd60e51b8152602060048201526013602482015272139bc81c1b185e595c9cc81a5b881c9bdd5b99606a1b60448201526064016105ad565b6000600160030160008154811061066f5761066f610e82565b60009182526020808320909101546001600160a01b03168083526005909152604082208054600191909101549193506106a791610e4f565b905060015b60045481101561072c576000600160030182815481106106ce576106ce610e82565b60009182526020808320909101546001600160a01b031680835260059091526040822080546001919091015491935061070691610e4f565b905083811115610717578093508194505b5050808061072490610e98565b9150506106ac565b50600254600680546001600160a01b0319166001600160a01b038516908117909155600783905560408051848152602081018490527fc4980f4058bd3a6b367f630b400fc9bc1f82a33fe87d49ce7aef6301345f3856910160405180910390a2610794610c5a565b6000836001600160a01b03168260405160006040518083038185875af1925050503d80600081146107e1576040519150601f19603f3d011682016040523d82523d6000602084013e6107e6565b606091505b50509050806108275760405162461bcd60e51b815260206004820152600d60248201526c14185e5bdd5d0819985a5b1959609a1b60448201526064016105ad565b505050506108356001600055565b565b60035460ff1661087b5760405162461bcd60e51b815260206004820152600f60248201526e139bc81858dd1a5d99481c9bdd5b99608a1b60448201526064016105ad565b60015461088a90600f90610eb1565b42106108ca5760405162461bcd60e51b815260206004820152600f60248201526e149bdd5b99081a185cc8195b991959608a1b60448201526064016105ad565b3360009081526005602052604090206002015460ff166109245760405162461bcd60e51b8152602060048201526015602482015274135d5cdd081a9bda5b881c9bdd5b9908199a5c9cdd605a1b60448201526064016105ad565b33600090815260056020526040812060010180549161094283610e98565b9091555050336000818152600560209081526040918290206001015491519182527f02c89c37314ddf69337d1a02d0eb5c89f6db04b7e813b7938026eddff9e9ec1991015b60405180910390a2565b600034116109e15760405162461bcd60e51b815260206004820152601c60248201527f5374616b65206d7573742062652067726561746572207468616e20300000000060448201526064016105ad565b3360009081526005602052604090206002015460ff1615610a445760405162461bcd60e51b815260206004820152601a60248201527f416c726561647920656e7465726564207468697320726f756e6400000000000060448201526064016105ad565b60035460ff16610a9b576003805460ff1916600190811790915542908190556040519081527f33a701182892fd888ed152ca2ac23771a32e814469b7cd255965471e1af3a6599060200160405180910390a1610af7565b600154610aa9906005610eb1565b4210610af75760405162461bcd60e51b815260206004820152601960248201527f526f756e6420616c726561647920696e2070726f67726573730000000000000060448201526064016105ad565b60408051606081018252348082526000602080840182815260018587018181523380865260059094529684209551865590518582015594516002948501805460ff191691151591909117905560048054958601815582527f8a35acfbc15ff81a39ae7d344fd709f28e8600b4aa8c65c6b64bfe7fe36bd19b90940180546001600160a01b0319169094179093558154909290610b94908490610eb1565b909155505060405134815233907f3330a6773675f31f62070870f40379f8c6d42e3761410011a4dfc42b18043d2f90602001610987565b60606001600301805480602002602001604051908101604052809291908181526020018280548015610c2657602002820191906000526020600020905b81546001600160a01b03168152600190910190602001808311610c08575b5050505050905090565b600260005403610c5357604051633ee5aeb560e01b815260040160405180910390fd5b6002600055565b60005b600454811015610ccd576004805460059160009184908110610c8157610c81610e82565b60009182526020808320909101546001600160a01b0316835282019290925260400181208181556001810191909155600201805460ff1916905580610cc581610e98565b915050610c5d565b50610cda60046000610cf0565b600060028190556001556003805460ff19169055565b5080546000825590600052602060002090810190610d0e9190610d11565b50565b5b80821115610d265760008155600101610d12565b5090565b600060208284031215610d3c57600080fd5b81356001600160a01b0381168114610d5357600080fd5b9392505050565b600081518084526020808501945080840160005b83811015610d935781516001600160a01b031687529582019590820190600101610d6e565b509495945050505050565b600081518084526020808501945080840160005b83811015610d9357815187529582019590820190600101610db2565b608081526000610de16080830187610d5a565b8281036020840152610df38187610d9e565b90508281036040840152610e078186610d9e565b90508281036060840152610e1b8185610d9e565b979650505050505050565b602081526000610d536020830184610d5a565b634e487b7160e01b600052601160045260246000fd5b8082028115828204841417610e6657610e66610e39565b92915050565b634e487b7160e01b600052604160045260246000fd5b634e487b7160e01b600052603260045260246000fd5b600060018201610eaa57610eaa610e39565b5060010190565b80820180821115610e6657610e66610e39565b81810381811115610e6657610e66610e3956fea26469706673582212205c2d2048cfc28e2ac6f9151c4532efc2b03618e7922f90845587dd4a0ff4db0d64736f6c63430008140033","opcodes":"PUSH1 0x80 PUSH1 0x40 MSTORE CALLVALUE DUP1 ISZERO PUSH2 0x10 JUMPI PUSH1 0x0 DUP1 REVERT JUMPDEST POP PUSH1 0x1 PUSH1 0x0 SSTORE PUSH2 0xF0D DUP1 PUSH2 0x25 PUSH1 0x0 CODECOPY PUSH1 0x0 RETURN INVALID PUSH1 0x80 PUSH1 0x40 MSTORE PUSH1 0x4 CALLDATASIZE LT PUSH2 0x9C JUMPI PUSH1 0x0 CALLDATALOAD PUSH1 0xE0 SHR DUP1 PUSH4 0x749AA2D9 GT PUSH2 0x64 JUMPI DUP1 PUSH4 0x749AA2D9 EQ PUSH2 0x185 JUMPI DUP1 PUSH4 0x7D55923D EQ PUSH2 0x19C JUMPI DUP1 PUSH4 0x8A19C8BC EQ PUSH2 0x1B1 JUMPI DUP1 PUSH4 0xA21D8029 EQ PUSH2 0x1F0 JUMPI DUP1 PUSH4 0xEFA1C482 EQ PUSH2 0x1F8 JUMPI DUP1 PUSH4 0xFE188184 EQ PUSH2 0x21A JUMPI PUSH1 0x0 DUP1 REVERT JUMPDEST DUP1 PUSH4 0x5491B7B EQ PUSH2 0xA1 JUMPI DUP1 PUSH4 0x59328401 EQ PUSH2 0xCA JUMPI DUP1 PUSH4 0x6641EA08 EQ PUSH2 0x10C JUMPI DUP1 PUSH4 0x6D763A6E EQ PUSH2 0x121 JUMPI DUP1 PUSH4 0x747DFF42 EQ PUSH2 0x146 JUMPI JUMPDEST PUSH1 0x0 DUP1 REVERT JUMPDEST CALLVALUE DUP1 ISZERO PUSH2 0xAD JUMPI PUSH1 0x0 DUP1 REVERT JUMPDEST POP PUSH2 0xB7 PUSH1 0x7 SLOAD DUP2 JUMP JUMPDEST PUSH1 0x40 MLOAD SWAP1 DUP2 MSTORE PUSH1 0x20 ADD JUMPDEST PUSH1 0x40 MLOAD DUP1 SWAP2 SUB SWAP1 RETURN JUMPDEST CALLVALUE DUP1 ISZERO PUSH2 0xD6 JUMPI PUSH1 0x0 DUP1 REVERT JUMPDEST POP PUSH2 0xEA PUSH2 0xE5 CALLDATASIZE PUSH1 0x4 PUSH2 0xD2A JUMP JUMPDEST PUSH2 0x252 JUMP JUMPDEST PUSH1 0x40 DUP1 MLOAD SWAP5 ISZERO ISZERO DUP6 MSTORE PUSH1 0x20 DUP6 ADD SWAP4 SWAP1 SWAP4 MSTORE SWAP2 DUP4 ADD MSTORE PUSH1 0x60 DUP3 ADD MSTORE PUSH1 0x80 ADD PUSH2 0xC1 JUMP JUMPDEST CALLVALUE DUP1 ISZERO PUSH2 0x118 JUMPI PUSH1 0x0 DUP1 REVERT JUMPDEST POP PUSH2 0xB7 PUSH1 0xF DUP2 JUMP JUMPDEST CALLVALUE DUP1 ISZERO PUSH2 0x12D JUMPI PUSH1 0x0 DUP1 REVERT JUMPDEST POP PUSH2 0x136 PUSH2 0x2AF JUMP JUMPDEST PUSH1 0x40 MLOAD PUSH2 0xC1 SWAP5 SWAP4 SWAP3 SWAP2 SWAP1 PUSH2 0xDCE JUMP JUMPDEST CALLVALUE DUP1 ISZERO PUSH2 0x152 JUMPI PUSH1 0x0 DUP1 REVERT JUMPDEST POP PUSH2 0x15B PUSH2 0x50D JUMP JUMPDEST PUSH1 0x40 DUP1 MLOAD SWAP6 ISZERO ISZERO DUP7 MSTORE PUSH1 0x20 DUP7 ADD SWAP5 SWAP1 SWAP5 MSTORE SWAP3 DUP5 ADD SWAP2 SWAP1 SWAP2 MSTORE PUSH1 0x60 DUP4 ADD MSTORE PUSH1 0x80 DUP3 ADD MSTORE PUSH1 0xA0 ADD PUSH2 0xC1 JUMP JUMPDEST CALLVALUE DUP1 ISZERO PUSH2 0x191 JUMPI PUSH1 0x0 DUP1 REVERT JUMPDEST POP PUSH2 0x19A PUSH2 0x56D JUMP JUMPDEST STOP JUMPDEST CALLVALUE DUP1 ISZERO PUSH2 0x1A8 JUMPI PUSH1 0x0 DUP1 REVERT JUMPDEST POP PUSH2 0x19A PUSH2 0x837 JUMP JUMPDEST CALLVALUE DUP1 ISZERO PUSH2 0x1BD JUMPI PUSH1 0x0 DUP1 REVERT JUMPDEST POP PUSH1 0x1 SLOAD PUSH1 0x2 SLOAD PUSH1 0x3 SLOAD PUSH2 0x1D3 SWAP3 SWAP2 SWAP1 PUSH1 0xFF AND DUP4 JUMP JUMPDEST PUSH1 0x40 DUP1 MLOAD SWAP4 DUP5 MSTORE PUSH1 0x20 DUP5 ADD SWAP3 SWAP1 SWAP3 MSTORE ISZERO ISZERO SWAP1 DUP3 ADD MSTORE PUSH1 0x60 ADD PUSH2 0xC1 JUMP JUMPDEST PUSH2 0x19A PUSH2 0x991 JUMP JUMPDEST CALLVALUE DUP1 ISZERO PUSH2 0x204 JUMPI PUSH1 0x0 DUP1 REVERT JUMPDEST POP PUSH2 0x20D PUSH2 0xBCB JUMP JUMPDEST PUSH1 0x40 MLOAD PUSH2 0xC1 SWAP2 SWAP1 PUSH2 0xE26 JUMP JUMPDEST CALLVALUE DUP1 ISZERO PUSH2 0x226 JUMPI PUSH1 0x0 DUP1 REVERT JUMPDEST POP PUSH1 0x6 SLOAD PUSH2 0x23A SWAP1 PUSH1 0x1 PUSH1 0x1 PUSH1 0xA0 SHL SUB AND DUP2 JUMP JUMPDEST PUSH1 0x40 MLOAD PUSH1 0x1 PUSH1 0x1 PUSH1 0xA0 SHL SUB SWAP1 SWAP2 AND DUP2 MSTORE PUSH1 0x20 ADD PUSH2 0xC1 JUMP JUMPDEST PUSH1 0x1 PUSH1 0x1 PUSH1 0xA0 SHL SUB DUP2 AND PUSH1 0x0 SWAP1 DUP2 MSTORE PUSH1 0x5 PUSH1 0x20 SWAP1 DUP2 MSTORE PUSH1 0x40 DUP1 DUP4 KECCAK256 DUP2 MLOAD PUSH1 0x60 DUP2 ADD DUP4 MSTORE DUP2 SLOAD DUP1 DUP3 MSTORE PUSH1 0x1 DUP4 ADD SLOAD SWAP5 DUP3 ADD DUP6 SWAP1 MSTORE PUSH1 0x2 SWAP1 SWAP3 ADD SLOAD PUSH1 0xFF AND ISZERO ISZERO SWAP3 DUP2 ADD DUP4 SWAP1 MSTORE SWAP2 SWAP4 SWAP1 SWAP3 SWAP2 PUSH2 0x2A5 DUP5 DUP5 PUSH2 0xE4F JUMP JUMPDEST SWAP2 POP POP SWAP2 SWAP4 POP SWAP2 SWAP4 JUMP JUMPDEST PUSH1 0x4 SLOAD PUSH1 0x60 SWAP1 DUP2 SWAP1 DUP2 SWAP1 DUP2 SWAP1 DUP1 PUSH8 0xFFFFFFFFFFFFFFFF DUP2 GT ISZERO PUSH2 0x2D4 JUMPI PUSH2 0x2D4 PUSH2 0xE6C JUMP JUMPDEST PUSH1 0x40 MLOAD SWAP1 DUP1 DUP3 MSTORE DUP1 PUSH1 0x20 MUL PUSH1 0x20 ADD DUP3 ADD PUSH1 0x40 MSTORE DUP1 ISZERO PUSH2 0x2FD JUMPI DUP2 PUSH1 0x20 ADD PUSH1 0x20 DUP3 MUL DUP1 CALLDATASIZE DUP4 CALLDATACOPY ADD SWAP1 POP JUMPDEST POP SWAP5 POP DUP1 PUSH8 0xFFFFFFFFFFFFFFFF DUP2 GT ISZERO PUSH2 0x319 JUMPI PUSH2 0x319 PUSH2 0xE6C JUMP JUMPDEST PUSH1 0x40 MLOAD SWAP1 DUP1 DUP3 MSTORE DUP1 PUSH1 0x20 MUL PUSH1 0x20 ADD DUP3 ADD PUSH1 0x40 MSTORE DUP1 ISZERO PUSH2 0x342 JUMPI DUP2 PUSH1 0x20 ADD PUSH1 0x20 DUP3 MUL DUP1 CALLDATASIZE DUP4 CALLDATACOPY ADD SWAP1 POP JUMPDEST POP SWAP4 POP DUP1 PUSH8 0xFFFFFFFFFFFFFFFF DUP2 GT ISZERO PUSH2 0x35E JUMPI PUSH2 0x35E PUSH2 0xE6C JUMP JUMPDEST PUSH1 0x40 MLOAD SWAP1 DUP1 DUP3 MSTORE DUP1 PUSH1 0x20 MUL PUSH1 0x20 ADD DUP3 ADD PUSH1 0x40 MSTORE DUP1 ISZERO PUSH2 0x387 JUMPI DUP2 PUSH1 0x20 ADD PUSH1 0x20 DUP3 MUL DUP1 CALLDATASIZE DUP4 CALLDATACOPY ADD SWAP1 POP JUMPDEST POP SWAP3 POP DUP1 PUSH8 0xFFFFFFFFFFFFFFFF DUP2 GT ISZERO PUSH2 0x3A3 JUMPI PUSH2 0x3A3 PUSH2 0xE6C JUMP JUMPDEST PUSH1 0x40 MLOAD SWAP1 DUP1 DUP3 MSTORE DUP1 PUSH1 0x20 MUL PUSH1 0x20 ADD DUP3 ADD PUSH1 0x40 MSTORE DUP1 ISZERO PUSH2 0x3CC JUMPI DUP2 PUSH1 0x20 ADD PUSH1 0x20 DUP3 MUL DUP1 CALLDATASIZE DUP4 CALLDATACOPY ADD SWAP1 POP JUMPDEST POP SWAP2 POP PUSH1 0x0 JUMPDEST DUP2 DUP2 LT ISZERO PUSH2 0x505 JUMPI PUSH1 0x0 PUSH1 0x1 PUSH1 0x3 ADD DUP3 DUP2 SLOAD DUP2 LT PUSH2 0x3F2 JUMPI PUSH2 0x3F2 PUSH2 0xE82 JUMP JUMPDEST PUSH1 0x0 SWAP2 DUP3 MSTORE PUSH1 0x20 DUP1 DUP4 KECCAK256 SWAP1 SWAP2 ADD SLOAD PUSH1 0x1 PUSH1 0x1 PUSH1 0xA0 SHL SUB AND DUP1 DUP4 MSTORE PUSH1 0x5 DUP3 MSTORE PUSH1 0x40 SWAP3 DUP4 SWAP1 KECCAK256 DUP4 MLOAD PUSH1 0x60 DUP2 ADD DUP6 MSTORE DUP2 SLOAD DUP2 MSTORE PUSH1 0x1 DUP3 ADD SLOAD SWAP4 DUP2 ADD SWAP4 SWAP1 SWAP4 MSTORE PUSH1 0x2 ADD SLOAD PUSH1 0xFF AND ISZERO ISZERO SWAP3 DUP3 ADD SWAP3 SWAP1 SWAP3 MSTORE DUP9 MLOAD SWAP2 SWAP3 POP SWAP1 DUP3 SWAP1 DUP10 SWAP1 DUP6 SWAP1 DUP2 LT PUSH2 0x458 JUMPI PUSH2 0x458 PUSH2 0xE82 JUMP JUMPDEST PUSH1 0x20 MUL PUSH1 0x20 ADD ADD SWAP1 PUSH1 0x1 PUSH1 0x1 PUSH1 0xA0 SHL SUB AND SWAP1 DUP2 PUSH1 0x1 PUSH1 0x1 PUSH1 0xA0 SHL SUB AND DUP2 MSTORE POP POP DUP1 PUSH1 0x0 ADD MLOAD DUP8 DUP5 DUP2 MLOAD DUP2 LT PUSH2 0x48F JUMPI PUSH2 0x48F PUSH2 0xE82 JUMP JUMPDEST PUSH1 0x20 MUL PUSH1 0x20 ADD ADD DUP2 DUP2 MSTORE POP POP DUP1 PUSH1 0x20 ADD MLOAD DUP7 DUP5 DUP2 MLOAD DUP2 LT PUSH2 0x4B2 JUMPI PUSH2 0x4B2 PUSH2 0xE82 JUMP JUMPDEST PUSH1 0x20 MUL PUSH1 0x20 ADD ADD DUP2 DUP2 MSTORE POP POP DUP1 PUSH1 0x0 ADD MLOAD DUP2 PUSH1 0x20 ADD MLOAD PUSH2 0x4D2 SWAP2 SWAP1 PUSH2 0xE4F JUMP JUMPDEST DUP6 DUP5 DUP2 MLOAD DUP2 LT PUSH2 0x4E4 JUMPI PUSH2 0x4E4 PUSH2 0xE82 JUMP JUMPDEST PUSH1 0x20 MUL PUSH1 0x20 ADD ADD DUP2 DUP2 MSTORE POP POP POP POP DUP1 DUP1 PUSH2 0x4FD SWAP1 PUSH2 0xE98 JUMP JUMPDEST SWAP2 POP POP PUSH2 0x3D2 JUMP JUMPDEST POP POP SWAP1 SWAP2 SWAP3 SWAP4 JUMP JUMPDEST PUSH1 0x3 SLOAD PUSH1 0x1 SLOAD PUSH1 0x2 SLOAD PUSH1 0x4 SLOAD PUSH1 0xFF SWAP1 SWAP4 AND SWAP3 PUSH1 0x0 DUP5 DUP1 ISZERO PUSH2 0x53B JUMPI POP PUSH1 0x1 SLOAD PUSH2 0x538 SWAP1 PUSH1 0xF SWAP1 PUSH2 0xEB1 JUMP JUMPDEST TIMESTAMP LT JUMPDEST ISZERO PUSH2 0x562 JUMPI PUSH1 0x1 SLOAD TIMESTAMP SWAP1 PUSH2 0x551 SWAP1 PUSH1 0xF SWAP1 PUSH2 0xEB1 JUMP JUMPDEST PUSH2 0x55B SWAP2 SWAP1 PUSH2 0xEC4 JUMP JUMPDEST SWAP1 POP PUSH2 0x566 JUMP JUMPDEST POP PUSH1 0x0 JUMPDEST SWAP1 SWAP2 SWAP3 SWAP4 SWAP5 JUMP JUMPDEST PUSH1 0x3 SLOAD PUSH1 0xFF AND PUSH2 0x5B6 JUMPI PUSH1 0x40 MLOAD PUSH3 0x461BCD PUSH1 0xE5 SHL DUP2 MSTORE PUSH1 0x20 PUSH1 0x4 DUP3 ADD MSTORE PUSH1 0xF PUSH1 0x24 DUP3 ADD MSTORE PUSH15 0x139BC81C9BDD5B99081D1BC8195B99 PUSH1 0x8A SHL PUSH1 0x44 DUP3 ADD MSTORE PUSH1 0x64 ADD JUMPDEST PUSH1 0x40 MLOAD DUP1 SWAP2 SUB SWAP1 REVERT JUMPDEST PUSH1 0x1 SLOAD PUSH2 0x5C5 SWAP1 PUSH1 0xF SWAP1 PUSH2 0xEB1 JUMP JUMPDEST TIMESTAMP LT ISZERO PUSH2 0x609 JUMPI PUSH1 0x40 MLOAD PUSH3 0x461BCD PUSH1 0xE5 SHL DUP2 MSTORE PUSH1 0x20 PUSH1 0x4 DUP3 ADD MSTORE PUSH1 0x12 PUSH1 0x24 DUP3 ADD MSTORE PUSH18 0x526F756E64207374696C6C20616374697665 PUSH1 0x70 SHL PUSH1 0x44 DUP3 ADD MSTORE PUSH1 0x64 ADD PUSH2 0x5AD JUMP JUMPDEST PUSH2 0x611 PUSH2 0xC30 JUMP JUMPDEST PUSH1 0x4 SLOAD PUSH2 0x656 JUMPI PUSH1 0x40 MLOAD PUSH3 0x461BCD PUSH1 0xE5 SHL DUP2 MSTORE PUSH1 0x20 PUSH1 0x4 DUP3 ADD MSTORE PUSH1 0x13 PUSH1 0x24 DUP3 ADD MSTORE PUSH19 0x139BC81C1B185E595C9CC81A5B881C9BDD5B99 PUSH1 0x6A SHL PUSH1 0x44 DUP3 ADD MSTORE PUSH1 0x64 ADD PUSH2 0x5AD JUMP JUMPDEST PUSH1 0x0 PUSH1 0x1 PUSH1 0x3 ADD PUSH1 0x0 DUP2 SLOAD DUP2 LT PUSH2 0x66F JUMPI PUSH2 0x66F PUSH2 0xE82 JUMP JUMPDEST PUSH1 0x0 SWAP2 DUP3 MSTORE PUSH1 0x20 DUP1 DUP4 KECCAK256 SWAP1 SWAP2 ADD SLOAD PUSH1 0x1 PUSH1 0x1 PUSH1 0xA0 SHL SUB AND DUP1 DUP4 MSTORE PUSH1 0x5 SWAP1 SWAP2 MSTORE PUSH1 0x40 DUP3 KECCAK256 DUP1 SLOAD PUSH1 0x1 SWAP2 SWAP1 SWAP2 ADD SLOAD SWAP2 SWAP4 POP PUSH2 0x6A7 SWAP2 PUSH2 0xE4F JUMP JUMPDEST SWAP1 POP PUSH1 0x1 JUMPDEST PUSH1 0x4 SLOAD DUP2 LT ISZERO PUSH2 0x72C JUMPI PUSH1 0x0 PUSH1 0x1 PUSH1 0x3 ADD DUP3 DUP2 SLOAD DUP2 LT PUSH2 0x6CE JUMPI PUSH2 0x6CE PUSH2 0xE82 JUMP JUMPDEST PUSH1 0x0 SWAP2 DUP3 MSTORE PUSH1 0x20 DUP1 DUP4 KECCAK256 SWAP1 SWAP2 ADD SLOAD PUSH1 0x1 PUSH1 0x1 PUSH1 0xA0 SHL SUB AND DUP1 DUP4 MSTORE PUSH1 0x5 SWAP1 SWAP2 MSTORE PUSH1 0x40 DUP3 KECCAK256 DUP1 SLOAD PUSH1 0x1 SWAP2 SWAP1 SWAP2 ADD SLOAD SWAP2 SWAP4 POP PUSH2 0x706 SWAP2 PUSH2 0xE4F JUMP JUMPDEST SWAP1 POP DUP4 DUP2 GT ISZERO PUSH2 0x717 JUMPI DUP1 SWAP4 POP DUP2 SWAP5 POP JUMPDEST POP POP DUP1 DUP1 PUSH2 0x724 SWAP1 PUSH2 0xE98 JUMP JUMPDEST SWAP2 POP POP PUSH2 0x6AC JUMP JUMPDEST POP PUSH1 0x2 SLOAD PUSH1 0x6 DUP1 SLOAD PUSH1 0x1 PUSH1 0x1 PUSH1 0xA0 SHL SUB NOT AND PUSH1 0x1 PUSH1 0x1 PUSH1 0xA0 SHL SUB DUP6 AND SWAP1 DUP2 OR SWAP1 SWAP2 SSTORE PUSH1 0x7 DUP4 SWAP1 SSTORE PUSH1 0x40 DUP1 MLOAD DUP5 DUP2 MSTORE PUSH1 0x20 DUP2 ADD DUP5 SWAP1 MSTORE PUSH32 0xC4980F4058BD3A6B367F630B400FC9BC1F82A33FE87D49CE7AEF6301345F3856 SWAP2 ADD PUSH1 0x40 MLOAD DUP1 SWAP2 SUB SWAP1 LOG2 PUSH2 0x794 PUSH2 0xC5A JUMP JUMPDEST PUSH1 0x0 DUP4 PUSH1 0x1 PUSH1 0x1 PUSH1 0xA0 SHL SUB AND DUP3 PUSH1 0x40 MLOAD PUSH1 0x0 PUSH1 0x40 MLOAD DUP1 DUP4 SUB DUP2 DUP6 DUP8 GAS CALL SWAP3 POP POP POP RETURNDATASIZE DUP1 PUSH1 0x0 DUP2 EQ PUSH2 0x7E1 JUMPI PUSH1 0x40 MLOAD SWAP2 POP PUSH1 0x1F NOT PUSH1 0x3F RETURNDATASIZE ADD AND DUP3 ADD PUSH1 0x40 MSTORE RETURNDATASIZE DUP3 MSTORE RETURNDATASIZE PUSH1 0x0 PUSH1 0x20 DUP5 ADD RETURNDATACOPY PUSH2 0x7E6 JUMP JUMPDEST PUSH1 0x60 SWAP2 POP JUMPDEST POP POP SWAP1 POP DUP1 PUSH2 0x827 JUMPI PUSH1 0x40 MLOAD PUSH3 0x461BCD PUSH1 0xE5 SHL DUP2 MSTORE PUSH1 0x20 PUSH1 0x4 DUP3 ADD MSTORE PUSH1 0xD PUSH1 0x24 DUP3 ADD MSTORE PUSH13 0x14185E5BDD5D0819985A5B1959 PUSH1 0x9A SHL PUSH1 0x44 DUP3 ADD MSTORE PUSH1 0x64 ADD PUSH2 0x5AD JUMP JUMPDEST POP POP POP POP PUSH2 0x835 PUSH1 0x1 PUSH1 0x0 SSTORE JUMP JUMPDEST JUMP JUMPDEST PUSH1 0x3 SLOAD PUSH1 0xFF AND PUSH2 0x87B JUMPI PUSH1 0x40 MLOAD PUSH3 0x461BCD PUSH1 0xE5 SHL DUP2 MSTORE PUSH1 0x20 PUSH1 0x4 DUP3 ADD MSTORE PUSH1 0xF PUSH1 0x24 DUP3 ADD MSTORE PUSH15 0x139BC81858DD1A5D99481C9BDD5B99 PUSH1 0x8A SHL PUSH1 0x44 DUP3 ADD MSTORE PUSH1 0x64 ADD PUSH2 0x5AD JUMP JUMPDEST PUSH1 0x1 SLOAD PUSH2 0x88A SWAP1 PUSH1 0xF SWAP1 PUSH2 0xEB1 JUMP JUMPDEST TIMESTAMP LT PUSH2 0x8CA JUMPI PUSH1 0x40 MLOAD PUSH3 0x461BCD PUSH1 0xE5 SHL DUP2 MSTORE PUSH1 0x20 PUSH1 0x4 DUP3 ADD MSTORE PUSH1 0xF PUSH1 0x24 DUP3 ADD MSTORE PUSH15 0x149BDD5B99081A185CC8195B991959 PUSH1 0x8A SHL PUSH1 0x44 DUP3 ADD MSTORE PUSH1 0x64 ADD PUSH2 0x5AD JUMP JUMPDEST CALLER PUSH1 0x0 SWAP1 DUP2 MSTORE PUSH1 0x5 PUSH1 0x20 MSTORE PUSH1 0x40 SWAP1 KECCAK256 PUSH1 0x2 ADD SLOAD PUSH1 0xFF AND PUSH2 0x924 JUMPI PUSH1 0x40 MLOAD PUSH3 0x461BCD PUSH1 0xE5 SHL DUP2 MSTORE PUSH1 0x20 PUSH1 0x4 DUP3 ADD MSTORE PUSH1 0x15 PUSH1 0x24 DUP3 ADD MSTORE PUSH21 0x135D5CDD081A9BDA5B881C9BDD5B9908199A5C9CDD PUSH1 0x5A SHL PUSH1 0x44 DUP3 ADD MSTORE PUSH1 0x64 ADD PUSH2 0x5AD JUMP JUMPDEST CALLER PUSH1 0x0 SWAP1 DUP2 MSTORE PUSH1 0x5 PUSH1 0x20 MSTORE PUSH1 0x40 DUP2 KECCAK256 PUSH1 0x1 ADD DUP1 SLOAD SWAP2 PUSH2 0x942 DUP4 PUSH2 0xE98 JUMP JUMPDEST SWAP1 SWAP2 SSTORE POP POP CALLER PUSH1 0x0 DUP2 DUP2 MSTORE PUSH1 0x5 PUSH1 0x20 SWAP1 DUP2 MSTORE PUSH1 0x40 SWAP2 DUP3 SWAP1 KECCAK256 PUSH1 0x1 ADD SLOAD SWAP2 MLOAD SWAP2 DUP3 MSTORE PUSH32 0x2C89C37314DDF69337D1A02D0EB5C89F6DB04B7E813B7938026EDDFF9E9EC19 SWAP2 ADD JUMPDEST PUSH1 0x40 MLOAD DUP1 SWAP2 SUB SWAP1 LOG2 JUMP JUMPDEST PUSH1 0x0 CALLVALUE GT PUSH2 0x9E1 JUMPI PUSH1 0x40 MLOAD PUSH3 0x461BCD PUSH1 0xE5 SHL DUP2 MSTORE PUSH1 0x20 PUSH1 0x4 DUP3 ADD MSTORE PUSH1 0x1C PUSH1 0x24 DUP3 ADD MSTORE PUSH32 0x5374616B65206D7573742062652067726561746572207468616E203000000000 PUSH1 0x44 DUP3 ADD MSTORE PUSH1 0x64 ADD PUSH2 0x5AD JUMP JUMPDEST CALLER PUSH1 0x0 SWAP1 DUP2 MSTORE PUSH1 0x5 PUSH1 0x20 MSTORE PUSH1 0x40 SWAP1 KECCAK256 PUSH1 0x2 ADD SLOAD PUSH1 0xFF AND ISZERO PUSH2 0xA44 JUMPI PUSH1 0x40 MLOAD PUSH3 0x461BCD PUSH1 0xE5 SHL DUP2 MSTORE PUSH1 0x20 PUSH1 0x4 DUP3 ADD MSTORE PUSH1 0x1A PUSH1 0x24 DUP3 ADD MSTORE PUSH32 0x416C726561647920656E7465726564207468697320726F756E64000000000000 PUSH1 0x44 DUP3 ADD MSTORE PUSH1 0x64 ADD PUSH2 0x5AD JUMP JUMPDEST PUSH1 0x3 SLOAD PUSH1 0xFF AND PUSH2 0xA9B JUMPI PUSH1 0x3 DUP1 SLOAD PUSH1 0xFF NOT AND PUSH1 0x1 SWAP1 DUP2 OR SWAP1 SWAP2 SSTORE TIMESTAMP SWAP1 DUP2 SWAP1 SSTORE PUSH1 0x40 MLOAD SWAP1 DUP2 MSTORE PUSH32 0x33A701182892FD888ED152CA2AC23771A32E814469B7CD255965471E1AF3A659 SWAP1 PUSH1 0x20 ADD PUSH1 0x40 MLOAD DUP1 SWAP2 SUB SWAP1 LOG1 PUSH2 0xAF7 JUMP JUMPDEST PUSH1 0x1 SLOAD PUSH2 0xAA9 SWAP1 PUSH1 0x5 PUSH2 0xEB1 JUMP JUMPDEST TIMESTAMP LT PUSH2 0xAF7 JUMPI PUSH1 0x40 MLOAD PUSH3 0x461BCD PUSH1 0xE5 SHL DUP2 MSTORE PUSH1 0x20 PUSH1 0x4 DUP3 ADD MSTORE PUSH1 0x19 PUSH1 0x24 DUP3 ADD MSTORE PUSH32 0x526F756E6420616C726561647920696E2070726F677265737300000000000000 PUSH1 0x44 DUP3 ADD MSTORE PUSH1 0x64 ADD PUSH2 0x5AD JUMP JUMPDEST PUSH1 0x40 DUP1 MLOAD PUSH1 0x60 DUP2 ADD DUP3 MSTORE CALLVALUE DUP1 DUP3 MSTORE PUSH1 0x0 PUSH1 0x20 DUP1 DUP5 ADD DUP3 DUP2 MSTORE PUSH1 0x1 DUP6 DUP8 ADD DUP2 DUP2 MSTORE CALLER DUP1 DUP7 MSTORE PUSH1 0x5 SWAP1 SWAP5 MSTORE SWAP7 DUP5 KECCAK256 SWAP6 MLOAD DUP7 SSTORE SWAP1 MLOAD DUP6 DUP3 ADD SSTORE SWAP5 MLOAD PUSH1 0x2 SWAP5 DUP6 ADD DUP1 SLOAD PUSH1 0xFF NOT AND SWAP2 ISZERO ISZERO SWAP2 SWAP1 SWAP2 OR SWAP1 SSTORE PUSH1 0x4 DUP1 SLOAD SWAP6 DUP7 ADD DUP2 SSTORE DUP3 MSTORE PUSH32 0x8A35ACFBC15FF81A39AE7D344FD709F28E8600B4AA8C65C6B64BFE7FE36BD19B SWAP1 SWAP5 ADD DUP1 SLOAD PUSH1 0x1 PUSH1 0x1 PUSH1 0xA0 SHL SUB NOT AND SWAP1 SWAP5 OR SWAP1 SWAP4 SSTORE DUP2 SLOAD SWAP1 SWAP3 SWAP1 PUSH2 0xB94 SWAP1 DUP5 SWAP1 PUSH2 0xEB1 JUMP JUMPDEST SWAP1 SWAP2 SSTORE POP POP PUSH1 0x40 MLOAD CALLVALUE DUP2 MSTORE CALLER SWAP1 PUSH32 0x3330A6773675F31F62070870F40379F8C6D42E3761410011A4DFC42B18043D2F SWAP1 PUSH1 0x20 ADD PUSH2 0x987 JUMP JUMPDEST PUSH1 0x60 PUSH1 0x1 PUSH1 0x3 ADD DUP1 SLOAD DUP1 PUSH1 0x20 MUL PUSH1 0x20 ADD PUSH1 0x40 MLOAD SWAP1 DUP2 ADD PUSH1 0x40 MSTORE DUP1 SWAP3 SWAP2 SWAP1 DUP2 DUP2 MSTORE PUSH1 0x20 ADD DUP3 DUP1 SLOAD DUP1 ISZERO PUSH2 0xC26 JUMPI PUSH1 0x20 MUL DUP3 ADD SWAP2 SWAP1 PUSH1 0x0 MSTORE PUSH1 0x20 PUSH1 0x0 KECCAK256 SWAP1 JUMPDEST DUP2 SLOAD PUSH1 0x1 PUSH1 0x1 PUSH1 0xA0 SHL SUB AND DUP2 MSTORE PUSH1 0x1 SWAP1 SWAP2 ADD SWAP1 PUSH1 0x20 ADD DUP1 DUP4 GT PUSH2 0xC08 JUMPI JUMPDEST POP POP POP POP POP SWAP1 POP SWAP1 JUMP JUMPDEST PUSH1 0x2 PUSH1 0x0 SLOAD SUB PUSH2 0xC53 JUMPI PUSH1 0x40 MLOAD PUSH4 0x3EE5AEB5 PUSH1 0xE0 SHL DUP2 MSTORE PUSH1 0x4 ADD PUSH1 0x40 MLOAD DUP1 SWAP2 SUB SWAP1 REVERT JUMPDEST PUSH1 0x2 PUSH1 0x0 SSTORE JUMP JUMPDEST PUSH1 0x0 JUMPDEST PUSH1 0x4 SLOAD DUP2 LT ISZERO PUSH2 0xCCD JUMPI PUSH1 0x4 DUP1 SLOAD PUSH1 0x5 SWAP2 PUSH1 0x0 SWAP2 DUP5 SWAP1 DUP2 LT PUSH2 0xC81 JUMPI PUSH2 0xC81 PUSH2 0xE82 JUMP JUMPDEST PUSH1 0x0 SWAP2 DUP3 MSTORE PUSH1 0x20 DUP1 DUP4 KECCAK256 SWAP1 SWAP2 ADD SLOAD PUSH1 0x1 PUSH1 0x1 PUSH1 0xA0 SHL SUB AND DUP4 MSTORE DUP3 ADD SWAP3 SWAP1 SWAP3 MSTORE PUSH1 0x40 ADD DUP2 KECCAK256 DUP2 DUP2 SSTORE PUSH1 0x1 DUP2 ADD SWAP2 SWAP1 SWAP2 SSTORE PUSH1 0x2 ADD DUP1 SLOAD PUSH1 0xFF NOT AND SWAP1 SSTORE DUP1 PUSH2 0xCC5 DUP2 PUSH2 0xE98 JUMP JUMPDEST SWAP2 POP POP PUSH2 0xC5D JUMP JUMPDEST POP PUSH2 0xCDA PUSH1 0x4 PUSH1 0x0 PUSH2 0xCF0 JUMP JUMPDEST PUSH1 0x0 PUSH1 0x2 DUP2 SWAP1 SSTORE PUSH1 0x1 SSTORE PUSH1 0x3 DUP1 SLOAD PUSH1 0xFF NOT AND SWAP1 SSTORE JUMP JUMPDEST POP DUP1 SLOAD PUSH1 0x0 DUP3 SSTORE SWAP1 PUSH1 0x0 MSTORE PUSH1 0x20 PUSH1 0x0 KECCAK256 SWAP1 DUP2 ADD SWAP1 PUSH2 0xD0E SWAP2 SWAP1 PUSH2 0xD11 JUMP JUMPDEST POP JUMP JUMPDEST JUMPDEST DUP1 DUP3 GT ISZERO PUSH2 0xD26 JUMPI PUSH1 0x0 DUP2 SSTORE PUSH1 0x1 ADD PUSH2 0xD12 JUMP JUMPDEST POP SWAP1 JUMP JUMPDEST PUSH1 0x0 PUSH1 0x20 DUP3 DUP5 SUB SLT ISZERO PUSH2 0xD3C JUMPI PUSH1 0x0 DUP1 REVERT JUMPDEST DUP2 CALLDATALOAD PUSH1 0x1 PUSH1 0x1 PUSH1 0xA0 SHL SUB DUP2 AND DUP2 EQ PUSH2 0xD53 JUMPI PUSH1 0x0 DUP1 REVERT JUMPDEST SWAP4 SWAP3 POP POP POP JUMP JUMPDEST PUSH1 0x0 DUP2 MLOAD DUP1 DUP5 MSTORE PUSH1 0x20 DUP1 DUP6 ADD SWAP5 POP DUP1 DUP5 ADD PUSH1 0x0 JUMPDEST DUP4 DUP2 LT ISZERO PUSH2 0xD93 JUMPI DUP2 MLOAD PUSH1 0x1 PUSH1 0x1 PUSH1 0xA0 SHL SUB AND DUP8 MSTORE SWAP6 DUP3 ADD SWAP6 SWAP1 DUP3 ADD SWAP1 PUSH1 0x1 ADD PUSH2 0xD6E JUMP JUMPDEST POP SWAP5 SWAP6 SWAP5 POP POP POP POP POP JUMP JUMPDEST PUSH1 0x0 DUP2 MLOAD DUP1 DUP5 MSTORE PUSH1 0x20 DUP1 DUP6 ADD SWAP5 POP DUP1 DUP5 ADD PUSH1 0x0 JUMPDEST DUP4 DUP2 LT ISZERO PUSH2 0xD93 JUMPI DUP2 MLOAD DUP8 MSTORE SWAP6 DUP3 ADD SWAP6 SWAP1 DUP3 ADD SWAP1 PUSH1 0x1 ADD PUSH2 0xDB2 JUMP JUMPDEST PUSH1 0x80 DUP2 MSTORE PUSH1 0x0 PUSH2 0xDE1 PUSH1 0x80 DUP4 ADD DUP8 PUSH2 0xD5A JUMP JUMPDEST DUP3 DUP2 SUB PUSH1 0x20 DUP5 ADD MSTORE PUSH2 0xDF3 DUP2 DUP8 PUSH2 0xD9E JUMP JUMPDEST SWAP1 POP DUP3 DUP2 SUB PUSH1 0x40 DUP5 ADD MSTORE PUSH2 0xE07 DUP2 DUP7 PUSH2 0xD9E JUMP JUMPDEST SWAP1 POP DUP3 DUP2 SUB PUSH1 0x60 DUP5 ADD MSTORE PUSH2 0xE1B DUP2 DUP6 PUSH2 0xD9E JUMP JUMPDEST SWAP8 SWAP7 POP POP POP POP POP POP POP JUMP JUMPDEST PUSH1 0x20 DUP2 MSTORE PUSH1 0x0 PUSH2 0xD53 PUSH1 0x20 DUP4 ADD DUP5 PUSH2 0xD5A JUMP JUMPDEST PUSH4 0x4E487B71 PUSH1 0xE0 SHL PUSH1 0x0 MSTORE PUSH1 0x11 PUSH1 0x4 MSTORE PUSH1 0x24 PUSH1 0x0 REVERT JUMPDEST DUP1 DUP3 MUL DUP2 ISZERO DUP3 DUP3 DIV DUP5 EQ OR PUSH2 0xE66 JUMPI PUSH2 0xE66 PUSH2 0xE39 JUMP JUMPDEST SWAP3 SWAP2 POP POP JUMP JUMPDEST PUSH4 0x4E487B71 PUSH1 0xE0 SHL PUSH1 0x0 MSTORE PUSH1 0x41 PUSH1 0x4 MSTORE PUSH1 0x24 PUSH1 0x0 REVERT JUMPDEST PUSH4 0x4E487B71 PUSH1 0xE0 SHL PUSH1 0x0 MSTORE PUSH1 0x32 PUSH1 0x4 MSTORE PUSH1 0x24 PUSH1 0x0 REVERT JUMPDEST PUSH1 0x0 PUSH1 0x1 DUP3 ADD PUSH2 0xEAA JUMPI PUSH2 0xEAA PUSH2 0xE39 JUMP JUMPDEST POP PUSH1 0x1 ADD SWAP1 JUMP JUMPDEST DUP1 DUP3 ADD DUP1 DUP3 GT ISZERO PUSH2 0xE66 JUMPI PUSH2 0xE66 PUSH2 0xE39 JUMP JUMPDEST DUP2 DUP2 SUB DUP2 DUP2 GT ISZERO PUSH2 0xE66 JUMPI PUSH2 0xE66 PUSH2 0xE39 JUMP INVALID LOG2 PUSH5 0x6970667358 0x22 SLT KECCAK256 0x5C 0x2D KECCAK256 BASEFEE 0xCF 0xC2 DUP15 0x2A 0xC6 0xF9 ISZERO SHR GASLIMIT ORIGIN 0xEF 0xC2 0xB0 CALLDATASIZE XOR 0xE7 SWAP3 0x2F SWAP1 DUP5 SSTORE DUP8 0xDD 0x4A 0xF DELEGATECALL 0xDB 0xD PUSH5 0x736F6C6343 STOP ADDMOD EQ STOP CALLER "},"methodIdentifiers":{"ROUND_DURATION()":"6641ea08","click()":"7d55923d","currentRound()":"8a19c8bc","endRound()":"749aa2d9","getAllPlayers()":"efa1c482","getCurrentRoundInfo()":"747dff42","getLeaderboard()":"6d763a6e","getPlayerInfo(address)":"59328401","joinRound()":"a21d8029","lastWinner()":"fe188184","lastWinningScore()":"05491b7b"}}}}}