{
  "_format": "hh-sol-artifact-1",
  "contractName": "FastestFingerPot",
  "sourceName": "contracts/FastestFingerPot.sol",
  "abi": [
    {
      "inputs": [],
      "name": "ReentrancyGuardReentrantCall",
      "type": "error"
    },
    {
      "anonymous": false,
      "inputs": [
        {
          "indexed": true,
          "internalType": "address",
          "name": "player",
          "type": "address"
        },
        {
          "indexed": false,
          "internalType": "uint256",
          "name": "totalClicks",
          "type": "uint256"
        }
      ],
      "name": "ClickRecorded",
      "type": "event"
    },
    {
      "anonymous": false,
      "inputs": [
        {
          "indexed": true,
          "internalType": "address",
          "name": "player",
          "type": "address"
        },
        {
          "indexed": false,
          "internalType": "uint256",
          "name": "stake",
          "type": "uint256"
        }
      ],
      "name": "PlayerJoined",
      "type": "event"
    },
    {
      "anonymous": false,
      "inputs": [
        {
          "indexed": true,
          "internalType": "address",
          "name": "winner",
          "type": "address"
        },
        {
          "indexed": false,
          "internalType": "uint256",
          "name": "winningScore",
          "type": "uint256"
        },
        {
          "indexed": false,
          "internalType": "uint256",
          "name": "payout",
          "type": "uint256"
        }
      ],
      "name": "RoundEnded",
      "type": "event"
    },
    {
      "anonymous": false,
      "inputs": [
        {
          "indexed": false,
          "internalType": "uint256",
          "name": "startTime",
          "type": "uint256"
        }
      ],
      "name": "RoundStarted",
      "type": "event"
    },
    {
      "inputs": [],
      "name": "ROUND_DURATION",
      "outputs": [
        {
          "internalType": "uint256",
          "name": "",
          "type": "uint256"
        }
      ],
      "stateMutability": "view",
      "type": "function"
    },
    {
      "inputs": [],
      "name": "click",
      "outputs": [],
      "stateMutability": "nonpayable",
      "type": "function"
    },
    {
      "inputs": [],
      "name": "currentRound",
      "outputs": [
        {
          "internalType": "uint256",
          "name": "startTime",
          "type": "uint256"
        },
        {
          "internalType": "uint256",
          "name": "totalPot",
          "type": "uint256"
        },
        {
          "internalType": "bool",
          "name": "active",
          "type": "bool"
        }
      ],
      "stateMutability": "view",
      "type": "function"
    },
    {
      "inputs": [],
      "name": "endRound",
      "outputs": [],
      "stateMutability": "nonpayable",
      "type": "function"
    },
    {
      "inputs": [],
      "name": "getAllPlayers",
      "outputs": [
        {
          "internalType": "address[]",
          "name": "",
          "type": "address[]"
        }
      ],
      "stateMutability": "view",
      "type": "function"
    },
    {
      "inputs": [],
      "name": "getCurrentRoundInfo",
      "outputs": [
        {
          "internalType": "bool",
          "name": "active",
          "type": "bool"
        },
        {
          "internalType": "uint256",
          "name": "startTime",
          "type": "uint256"
        },
        {
          "internalType": "uint256",
          "name": "totalPot",
          "type": "uint256"
        },
        {
          "internalType": "uint256",
          "name": "playerCount",
          "type": "uint256"
        },
        {
          "internalType": "uint256",
          "name": "timeRemaining",
          "type": "uint256"
        }
      ],
      "stateMutability": "view",
      "type": "function"
    },
    {
      "inputs": [],
      "name": "getLeaderboard",
      "outputs": [
        {
          "internalType": "address[]",
          "name": "addresses",
          "type": "address[]"
        },
        {
          "internalType": "uint256[]",
          "name": "stakes",
          "type": "uint256[]"
        },
        {
          "internalType": "uint256[]",
          "name": "clicks",
          "type": "uint256[]"
        },
        {
          "internalType": "uint256[]",
          "name": "scores",
          "type": "uint256[]"
        }
      ],
      "stateMutability": "view",
      "type": "function"
    },
    {
      "inputs": [
        {
          "internalType": "address",
          "name": "player",
          "type": "address"
        }
      ],
      "name": "getPlayerInfo",
      "outputs": [
        {
          "internalType": "bool",
          "name": "hasEntered",
          "type": "bool"
        },
        {
          "internalType": "uint256",
          "name": "stake",
          "type": "uint256"
        },
        {
          "internalType": "uint256",
          "name": "clicks",
          "type": "uint256"
        },
        {
          "internalType": "uint256",
          "name": "score",
          "type": "uint256"
        }
      ],
      "stateMutability": "view",
      "type": "function"
    },
    {
      "inputs": [],
      "name": "joinRound",
      "outputs": [],
      "stateMutability": "payable",
      "type": "function"
    },
    {
      "inputs": [],
      "name": "lastWinner",
      "outputs": [
        {
          "internalType": "address",
          "name": "",
          "type": "address"
        }
      ],
      "stateMutability": "view",
      "type": "function"
    },
    {
      "inputs": [],
      "name": "lastWinningScore",
      "outputs": [
        {
          "internalType": "uint256",
          "name": "",
          "type": "uint256"
        }
      ],
      "stateMutability": "view",
      "type": "function"
    }
  ],
  "bytecode": "0x608060405234801561001057600080fd5b506001600055610f0d806100256000396000f3fe60806040526004361061009c5760003560e01c8063749aa2d911610064578063749aa2d9146101855780637d55923d1461019c5780638a19c8bc146101b1578063a21d8029146101f0578063efa1c482146101f8578063fe1881841461021a57600080fd5b806305491b7b146100a157806359328401146100ca5780636641ea081461010c5780636d763a6e14610121578063747dff4214610146575b600080fd5b3480156100ad57600080fd5b506100b760075481565b6040519081526020015b60405180910390f35b3480156100d657600080fd5b506100ea6100e5366004610d2a565b610252565b60408051941515855260208501939093529183015260608201526080016100c1565b34801561011857600080fd5b506100b7600f81565b34801561012d57600080fd5b506101366102af565b6040516100c19493929190610dce565b34801561015257600080fd5b5061015b61050d565b6040805195151586526020860194909452928401919091526060830152608082015260a0016100c1565b34801561019157600080fd5b5061019a61056d565b005b3480156101a857600080fd5b5061019a610837565b3480156101bd57600080fd5b506001546002546003546101d392919060ff1683565b6040805193845260208401929092521515908201526060016100c1565b61019a610991565b34801561020457600080fd5b5061020d610bcb565b6040516100c19190610e26565b34801561022657600080fd5b5060065461023a906001600160a01b031681565b6040516001600160a01b0390911681526020016100c1565b6001600160a01b038116600090815260056020908152604080832081516060810183528154808252600183015494820185905260029092015460ff16151592810183905291939092916102a58484610e4f565b9150509193509193565b6004546060908190819081908067ffffffffffffffff8111156102d4576102d4610e6c565b6040519080825280602002602001820160405280156102fd578160200160208202803683370190505b5094508067ffffffffffffffff81111561031957610319610e6c565b604051908082528060200260200182016040528015610342578160200160208202803683370190505b5093508067ffffffffffffffff81111561035e5761035e610e6c565b604051908082528060200260200182016040528015610387578160200160208202803683370190505b5092508067ffffffffffffffff8111156103a3576103a3610e6c565b6040519080825280602002602001820160405280156103cc578160200160208202803683370190505b50915060005b81811015610505576000600160030182815481106103f2576103f2610e82565b60009182526020808320909101546001600160a01b0316808352600582526040928390208351606081018552815481526001820154938101939093526002015460ff16151592820192909252885191925090829089908590811061045857610458610e82565b60200260200101906001600160a01b031690816001600160a01b031681525050806000015187848151811061048f5761048f610e82565b60200260200101818152505080602001518684815181106104b2576104b2610e82565b602002602001018181525050806000015181602001516104d29190610e4f565b8584815181106104e4576104e4610e82565b602002602001018181525050505080806104fd90610e98565b9150506103d2565b505090919293565b60035460015460025460045460ff90931692600084801561053b575060015461053890600f90610eb1565b42105b1561056257600154429061055190600f90610eb1565b61055b9190610ec4565b9050610566565b5060005b9091929394565b60035460ff166105b65760405162461bcd60e51b815260206004820152600f60248201526e139bc81c9bdd5b99081d1bc8195b99608a1b60448201526064015b60405180910390fd5b6001546105c590600f90610eb1565b4210156106095760405162461bcd60e51b8152602060048201526012602482015271526f756e64207374696c6c2061637469766560701b60448201526064016105ad565b610611610c30565b6004546106565760405162461bcd60e51b8152602060048201526013602482015272139bc81c1b185e595c9cc81a5b881c9bdd5b99606a1b60448201526064016105ad565b6000600160030160008154811061066f5761066f610e82565b60009182526020808320909101546001600160a01b03168083526005909152604082208054600191909101549193506106a791610e4f565b905060015b60045481101561072c576000600160030182815481106106ce576106ce610e82565b60009182526020808320909101546001600160a01b031680835260059091526040822080546001919091015491935061070691610e4f565b905083811115610717578093508194505b5050808061072490610e98565b9150506106ac565b50600254600680546001600160a01b0319166001600160a01b038516908117909155600783905560408051848152602081018490527fc4980f4058bd3a6b367f630b400fc9bc1f82a33fe87d49ce7aef6301345f3856910160405180910390a2610794610c5a565b6000836001600160a01b03168260405160006040518083038185875af1925050503d80600081146107e1576040519150601f19603f3d011682016040523d82523d6000602084013e6107e6565b606091505b50509050806108275760405162461bcd60e51b815260206004820152600d60248201526c14185e5bdd5d0819985a5b1959609a1b60448201526064016105ad565b505050506108356001600055565b565b60035460ff1661087b5760405162461bcd60e51b815260206004820152600f60248201526e139bc81858dd1a5d99481c9bdd5b99608a1b60448201526064016105ad565b60015461088a90600f90610eb1565b42106108ca5760405162461bcd60e51b815260206004820152600f60248201526e149bdd5b99081a185cc8195b991959608a1b60448201526064016105ad565b3360009081526005602052604090206002015460ff166109245760405162461bcd60e51b8152602060048201526015602482015274135d5cdd081a9bda5b881c9bdd5b9908199a5c9cdd605a1b60448201526064016105ad565b33600090815260056020526040812060010180549161094283610e98565b9091555050336000818152600560209081526040918290206001015491519182527f02c89c37314ddf69337d1a02d0eb5c89f6db04b7e813b7938026eddff9e9ec1991015b60405180910390a2565b600034116109e15760405162461bcd60e51b815260206004820152601c60248201527f5374616b65206d7573742062652067726561746572207468616e20300000000060448201526064016105ad565b3360009081526005602052604090206002015460ff1615610a445760405162461bcd60e51b815260206004820152601a60248201527f416c726561647920656e7465726564207468697320726f756e6400000000000060448201526064016105ad565b60035460ff16610a9b576003805460ff1916600190811790915542908190556040519081527f33a701182892fd888ed152ca2ac23771a32e814469b7cd255965471e1af3a6599060200160405180910390a1610af7565b600154610aa9906005610eb1565b4210610af75760405162461bcd60e51b815260206004820152601960248201527f526f756e6420616c726561647920696e2070726f67726573730000000000000060448201526064016105ad565b60408051606081018252348082526000602080840182815260018587018181523380865260059094529684209551865590518582015594516002948501805460ff191691151591909117905560048054958601815582527f8a35acfbc15ff81a39ae7d344fd709f28e8600b4aa8c65c6b64bfe7fe36bd19b90940180546001600160a01b0319169094179093558154909290610b94908490610eb1565b909155505060405134815233907f3330a6773675f31f62070870f40379f8c6d42e3761410011a4dfc42b18043d2f90602001610987565b60606001600301805480602002602001604051908101604052809291908181526020018280548015610c2657602002820191906000526020600020905b81546001600160a01b03168152600190910190602001808311610c08575b5050505050905090565b600260005403610c5357604051633ee5aeb560e01b815260040160405180910390fd5b6002600055565b60005b600454811015610ccd576004805460059160009184908110610c8157610c81610e82565b60009182526020808320909101546001600160a01b0316835282019290925260400181208181556001810191909155600201805460ff1916905580610cc581610e98565b915050610c5d565b50610cda60046000610cf0565b600060028190556001556003805460ff19169055565b5080546000825590600052602060002090810190610d0e9190610d11565b50565b5b80821115610d265760008155600101610d12565b5090565b600060208284031215610d3c57600080fd5b81356001600160a01b0381168114610d5357600080fd5b9392505050565b600081518084526020808501945080840160005b83811015610d935781516001600160a01b031687529582019590820190600101610d6e565b509495945050505050565b600081518084526020808501945080840160005b83811015610d9357815187529582019590820190600101610db2565b608081526000610de16080830187610d5a565b8281036020840152610df38187610d9e565b90508281036040840152610e078186610d9e565b90508281036060840152610e1b8185610d9e565b979650505050505050565b602081526000610d536020830184610d5a565b634e487b7160e01b600052601160045260246000fd5b8082028115828204841417610e6657610e66610e39565b92915050565b634e487b7160e01b600052604160045260246000fd5b634e487b7160e01b600052603260045260246000fd5b600060018201610eaa57610eaa610e39565b5060010190565b80820180821115610e6657610e66610e39565b81810381811115610e6657610e66610e3956fea26469706673582212205c2d2048cfc28e2ac6f9151c4532efc2b03618e7922f90845587dd4a0ff4db0d64736f6c63430008140033",
  "linkReferences": {},
  "deployedLinkReferences": {}
}